{
  "contractName": "IotBlock",
  "abi": [
    {
      "inputs": [
        {
          "internalType": "string",
          "name": "hash",
          "type": "string"
        },
        {
          "internalType": "uint256",
          "name": "currentTime",
          "type": "uint256"
        }
      ],
      "name": "pushData",
      "outputs": [],
      "stateMutability": "nonpayable",
      "type": "function"
    },
    {
      "inputs": [
        {
          "internalType": "string",
          "name": "hash",
          "type": "string"
        }
      ],
      "name": "verify",
      "outputs": [
        {
          "internalType": "uint256",
          "name": "",
          "type": "uint256"
        }
      ],
      "stateMutability": "view",
      "type": "function",
      "constant": true
    }
  ],
  "bytecode": "0x608060405234801561001057600080fd5b50610338806100206000396000f3fe608060405234801561001057600080fd5b50600436106100365760003560e01c80636387007a1461003b578063bb9c6c3e14610100575b600080fd5b6100fe6004803603604081101561005157600080fd5b810190808035906020019064010000000081111561006e57600080fd5b82018360208201111561008057600080fd5b803590602001918460018302840111640100000000831117156100a257600080fd5b91908080601f016020809104026020016040519081016040528093929190818152602001838380828437600081840152601f19601f820116905080830192505050505050509192919290803590602001909291905050506101cf565b005b6101b96004803603602081101561011657600080fd5b810190808035906020019064010000000081111561013357600080fd5b82018360208201111561014557600080fd5b8035906020019184600183028401116401000000008311171561016757600080fd5b91908080601f016020809104026020016040519081016040528093929190818152602001838380828437600081840152601f19601f820116905080830192505050505050509192919290505050610258565b6040518082815260200191505060405180910390f35b6040518060200160405280828152506000836040518082805190602001908083835b6020831061021457805182526020820191506020810190506020830392506101f1565b6001836020036101000a0380198251168184511680821785525050505050509050019150509081526020016040518091039020600082015181600001559050505050565b60006102626102ef565b6000836040518082805190602001908083835b602083106102985780518252602082019150602081019050602083039250610275565b6001836020036101000a038019825116818451168082178552505050505050905001915050908152602001604051809103902060405180602001604052908160008201548152505090508060000151915050919050565b604051806020016040528060008152509056fea264697066735822122054110681170ca1f435264ea73b9b71c6ef6561c98f40f5e819b5c4bd0d1fef1064736f6c63430007000033",
  "immutableReferences": {},
  "source": "// SPDX-License-Identifier: MIT\r\npragma solidity ^0.7.0;\r\n\r\ncontract IotBlock {\r\n    struct transactInfo{\r\n        uint256 time;\r\n    }\r\n    mapping (string => transactInfo) iotBlock; \r\n\r\n    function pushData(string memory hash, uint256 currentTime) public {\r\n        iotBlock[hash] = transactInfo({\r\n            time : currentTime\r\n        });\r\n    }\r\n\r\n    function verify(string memory hash) public view returns (uint256){\r\n        transactInfo memory info;\r\n        info = iotBlock[hash];\r\n        return info.time;\r\n    }\r\n     \r\n}",
  "sourcePath": "D:/BK4/project3/ethereum/main-project/contracts/IotBlock.sol",
  "compiler": {
    "name": "solc",
    "version": "0.7.0+commit.9e61f92b.Emscripten.clang"
  },
  "schemaVersion": "3.3.0",
  "updatedAt": "2020-11-03T14:24:59.456Z",
  "networkType": "ethereum",
  "devdoc": {
    "kind": "dev",
    "methods": {},
    "version": 1
  },
  "userdoc": {
    "kind": "user",
    "methods": {},
    "version": 1
  }
}